{
  "contractName": "EthPrice",
  "abi": [
    {
      "constant": true,
      "inputs": [],
      "name": "ethPriceUsd",
      "outputs": [
        {
          "name": "",
          "type": "uint256"
        }
      ],
      "payable": false,
      "stateMutability": "view",
      "type": "function"
    },
    {
      "inputs": [],
      "payable": false,
      "stateMutability": "nonpayable",
      "type": "constructor"
    },
    {
      "anonymous": false,
      "inputs": [
        {
          "indexed": false,
          "name": "price",
          "type": "string"
        }
      ],
      "name": "LogNewEthPrice",
      "type": "event"
    },
    {
      "anonymous": false,
      "inputs": [
        {
          "indexed": false,
          "name": "description",
          "type": "string"
        }
      ],
      "name": "LogNewOraclizeQuery",
      "type": "event"
    },
    {
      "constant": false,
      "inputs": [
        {
          "name": "myid",
          "type": "bytes32"
        },
        {
          "name": "result",
          "type": "string"
        }
      ],
      "name": "__callback",
      "outputs": [],
      "payable": false,
      "stateMutability": "nonpayable",
      "type": "function"
    },
    {
      "constant": false,
      "inputs": [
        {
          "name": "myid",
          "type": "bytes32"
        },
        {
          "name": "result",
          "type": "string"
        },
        {
          "name": "proof",
          "type": "bytes"
        }
      ],
      "name": "__callback",
      "outputs": [],
      "payable": false,
      "stateMutability": "nonpayable",
      "type": "function"
    },
    {
      "constant": false,
      "inputs": [],
      "name": "update",
      "outputs": [],
      "payable": true,
      "stateMutability": "payable",
      "type": "function"
    }
  ],
  "bytecode": "0x60806040523480156200001157600080fd5b506200002b62000031640100000000026401000000009004565b62000dc2565b7f621c2856e3b87f81235f8ac8a22bbb40a0142961960710d00b2b6c380902b57e6040518080602001828103825260358152602001807f4f7261636c697a65207175657279207761732073656e742c207374616e64696e81526020017f6720627920666f722074686520616e737765722e2e000000000000000000000081525060400191505060405180910390a1620001916040805190810160405280600381526020017f55524c0000000000000000000000000000000000000000000000000000000000815250608060405190810160405280604181526020017f6a736f6e2868747470733a2f2f6170692e636f696e626173652e636f6d2f763281526020017f2f7072696365732f4554482d5553442f73706f74292e646174612e616d6f756e81526020017f740000000000000000000000000000000000000000000000000000000000000081525062000194640100000000026401000000009004565b50565b60008060008060009054906101000a900473ffffffffffffffffffffffffffffffffffffffff1673ffffffffffffffffffffffffffffffffffffffff1614806200021857506000620002166000809054906101000a900473ffffffffffffffffffffffffffffffffffffffff1662000772640100000000026401000000009004565b145b156200023b576200023960006200077d640100000000026401000000009004565b505b6000809054906101000a900473ffffffffffffffffffffffffffffffffffffffff1673ffffffffffffffffffffffffffffffffffffffff166338cc48316040518163ffffffff167c0100000000000000000000000000000000000000000000000000000000028152600401602060405180830381600087803b158015620002c157600080fd5b505af1158015620002d6573d6000803e3d6000fd5b505050506040513d6020811015620002ed57600080fd5b810190808051906020019092919050505073ffffffffffffffffffffffffffffffffffffffff16600160009054906101000a900473ffffffffffffffffffffffffffffffffffffffff1673ffffffffffffffffffffffffffffffffffffffff1614151562000459576000809054906101000a900473ffffffffffffffffffffffffffffffffffffffff1673ffffffffffffffffffffffffffffffffffffffff166338cc48316040518163ffffffff167c0100000000000000000000000000000000000000000000000000000000028152600401602060405180830381600087803b158015620003db57600080fd5b505af1158015620003f0573d6000803e3d6000fd5b505050506040513d60208110156200040757600080fd5b8101908080519060200190929190505050600160006101000a81548173ffffffffffffffffffffffffffffffffffffffff021916908373ffffffffffffffffffffffffffffffffffffffff1602179055505b600160009054906101000a900473ffffffffffffffffffffffffffffffffffffffff1673ffffffffffffffffffffffffffffffffffffffff1663524f3889856040518263ffffffff167c01000000000000000000000000000000000000000000000000000000000281526004018080602001828103825283818151815260200191508051906020019080838360005b8381101562000505578082015181840152602081019050620004e8565b50505050905090810190601f168015620005335780820380516001836020036101000a031916815260200191505b5092505050602060405180830381600087803b1580156200055357600080fd5b505af115801562000568573d6000803e3d6000fd5b505050506040513d60208110156200057f57600080fd5b8101908080519060200190929190505050905062030d403a02670de0b6b3a764000001811115620005b757600060010291506200076b565b600160009054906101000a900473ffffffffffffffffffffffffffffffffffffffff1673ffffffffffffffffffffffffffffffffffffffff1663adf59f9982600087876040518563ffffffff167c0100000000000000000000000000000000000000000000000000000000028152600401808481526020018060200180602001838103835285818151815260200191508051906020019080838360005b838110156200067157808201518184015260208101905062000654565b50505050905090810190601f1680156200069f5780820380516001836020036101000a031916815260200191505b50838103825284818151815260200191508051906020019080838360005b83811015620006da578082015181840152602081019050620006bd565b50505050905090810190601f168015620007085780820380516001836020036101000a031916815260200191505b50955050505050506020604051808303818588803b1580156200072a57600080fd5b505af11580156200073f573d6000803e3d6000fd5b50505050506040513d60208110156200075757600080fd5b810190808051906020019092919050505091505b5092915050565b6000813b9050919050565b6000620007986200079f640100000000026401000000009004565b9050919050565b600080620007d0731d3b2638a7cc9f2cb3d298a3da7a90b67e5506ed62000772640100000000026401000000009004565b11156200088457731d3b2638a7cc9f2cb3d298a3da7a90b67e5506ed6000806101000a81548173ffffffffffffffffffffffffffffffffffffffff021916908373ffffffffffffffffffffffffffffffffffffffff1602179055506200087a6040805190810160405280600b81526020017f6574685f6d61696e6e657400000000000000000000000000000000000000000081525062000cf7640100000000026401000000009004565b6001905062000cf4565b6000620008b473c03a2615d5efaf5f49f60b7bb6583eaec212fdf162000772640100000000026401000000009004565b1115620009685773c03a2615d5efaf5f49f60b7bb6583eaec212fdf16000806101000a81548173ffffffffffffffffffffffffffffffffffffffff021916908373ffffffffffffffffffffffffffffffffffffffff1602179055506200095e6040805190810160405280600c81526020017f6574685f726f707374656e33000000000000000000000000000000000000000081525062000cf7640100000000026401000000009004565b6001905062000cf4565b60006200099873b7a07bcf2ba2f2703b24c0691b5278999c59ac7e62000772640100000000026401000000009004565b111562000a4c5773b7a07bcf2ba2f2703b24c0691b5278999c59ac7e6000806101000a81548173ffffffffffffffffffffffffffffffffffffffff021916908373ffffffffffffffffffffffffffffffffffffffff16021790555062000a426040805190810160405280600981526020017f6574685f6b6f76616e000000000000000000000000000000000000000000000081525062000cf7640100000000026401000000009004565b6001905062000cf4565b600062000a7c73146500cfd35b22e4a392fe0adc06de1a1368ed4862000772640100000000026401000000009004565b111562000b305773146500cfd35b22e4a392fe0adc06de1a1368ed486000806101000a81548173ffffffffffffffffffffffffffffffffffffffff021916908373ffffffffffffffffffffffffffffffffffffffff16021790555062000b266040805190810160405280600b81526020017f6574685f72696e6b65627900000000000000000000000000000000000000000081525062000cf7640100000000026401000000009004565b6001905062000cf4565b600062000b60736f485c8bf6fc43ea212e93bbf8ce046c7f1cb47562000772640100000000026401000000009004565b111562000bc557736f485c8bf6fc43ea212e93bbf8ce046c7f1cb4756000806101000a81548173ffffffffffffffffffffffffffffffffffffffff021916908373ffffffffffffffffffffffffffffffffffffffff1602179055506001905062000cf4565b600062000bf57320e12a1f859b3feae5fb2a0a32c18f5a65555bbf62000772640100000000026401000000009004565b111562000c5a577320e12a1f859b3feae5fb2a0a32c18f5a65555bbf6000806101000a81548173ffffffffffffffffffffffffffffffffffffffff021916908373ffffffffffffffffffffffffffffffffffffffff1602179055506001905062000cf4565b600062000c8a7351efaf4c8b3c9afbd5ab9f4bbc82784ab6ef8faa62000772640100000000026401000000009004565b111562000cef577351efaf4c8b3c9afbd5ab9f4bbc82784ab6ef8faa6000806101000a81548173ffffffffffffffffffffffffffffffffffffffff021916908373ffffffffffffffffffffffffffffffffffffffff1602179055506001905062000cf4565b600090505b90565b806002908051906020019062000d0f92919062000d13565b5050565b828054600181600116156101000203166002900490600052602060002090601f016020900481019282601f1062000d5657805160ff191683800117855562000d87565b8280016001018555821562000d87579182015b8281111562000d8657825182559160200191906001019062000d69565b5b50905062000d96919062000d9a565b5090565b62000dbf91905b8082111562000dbb57600081600090555060010162000da1565b5090565b90565b6116128062000dd26000396000f300608060405260043610610062576000357c0100000000000000000000000000000000000000000000000000000000900463ffffffff16806316061dbf1461006757806327dc297e1461009257806338bbfa5014610109578063a2e62045146101c6575b600080fd5b34801561007357600080fd5b5061007c6101d0565b6040518082815260200191505060405180910390f35b34801561009e57600080fd5b506101076004803603810190808035600019169060200190929190803590602001908201803590602001908080601f01602080910402602001604051908101604052809392919081815260200183838082843782019150505050505091929192905050506101d6565b005b34801561011557600080fd5b506101c46004803603810190808035600019169060200190929190803590602001908201803590602001908080601f0160208091040260200160405190810160405280939291908181526020018383808284378201915050505050509192919290803590602001908201803590602001908080601f0160208091040260200160405190810160405280939291908181526020018383808284378201915050505050509192919290505050610331565b005b6101ce610336565b005b60055481565b6101de610488565b73ffffffffffffffffffffffffffffffffffffffff163373ffffffffffffffffffffffffffffffffffffffff16141515610280576040517f08c379a00000000000000000000000000000000000000000000000000000000081526004018080602001828103825260178152602001807f43616c6c6572206973206e6f74204f7261636c697a652100000000000000000081525060200191505060405180910390fd5b7f13f6c146341f01b18567c39d285d72a1fed28b0731c5dfa67c925b22abfa858b816040518080602001828103825283818151815260200191508051906020019080838360005b838110156102e25780820151818401526020810190506102c7565b50505050905090810190601f16801561030f5780820380516001836020036101000a031916815260200191505b509250505060405180910390a16103278160026107e6565b6005819055505050565b505050565b7f621c2856e3b87f81235f8ac8a22bbb40a0142961960710d00b2b6c380902b57e6040518080602001828103825260358152602001807f4f7261636c697a65207175657279207761732073656e742c207374616e64696e81526020017f6720627920666f722074686520616e737765722e2e000000000000000000000081525060400191505060405180910390a16104856040805190810160405280600381526020017f55524c0000000000000000000000000000000000000000000000000000000000815250608060405190810160405280604181526020017f6a736f6e2868747470733a2f2f6170692e636f696e626173652e636f6d2f763281526020017f2f7072696365732f4554482d5553442f73706f74292e646174612e616d6f756e81526020017f7400000000000000000000000000000000000000000000000000000000000000815250610ada565b50565b6000806000809054906101000a900473ffffffffffffffffffffffffffffffffffffffff1673ffffffffffffffffffffffffffffffffffffffff1614806104f8575060006104f66000809054906101000a900473ffffffffffffffffffffffffffffffffffffffff1661107c565b145b15610509576105076000611087565b505b6000809054906101000a900473ffffffffffffffffffffffffffffffffffffffff1673ffffffffffffffffffffffffffffffffffffffff166338cc48316040518163ffffffff167c0100000000000000000000000000000000000000000000000000000000028152600401602060405180830381600087803b15801561058e57600080fd5b505af11580156105a2573d6000803e3d6000fd5b505050506040513d60208110156105b857600080fd5b810190808051906020019092919050505073ffffffffffffffffffffffffffffffffffffffff16600160009054906101000a900473ffffffffffffffffffffffffffffffffffffffff1673ffffffffffffffffffffffffffffffffffffffff16141515610720576000809054906101000a900473ffffffffffffffffffffffffffffffffffffffff1673ffffffffffffffffffffffffffffffffffffffff166338cc48316040518163ffffffff167c0100000000000000000000000000000000000000000000000000000000028152600401602060405180830381600087803b1580156106a457600080fd5b505af11580156106b8573d6000803e3d6000fd5b505050506040513d60208110156106ce57600080fd5b8101908080519060200190929190505050600160006101000a81548173ffffffffffffffffffffffffffffffffffffffff021916908373ffffffffffffffffffffffffffffffffffffffff1602179055505b600160009054906101000a900473ffffffffffffffffffffffffffffffffffffffff1673ffffffffffffffffffffffffffffffffffffffff1663c281d19e6040518163ffffffff167c0100000000000000000000000000000000000000000000000000000000028152600401602060405180830381600087803b1580156107a657600080fd5b505af11580156107ba573d6000803e3d6000fd5b505050506040513d60208110156107d057600080fd5b8101908080519060200190929190505050905090565b6000606060008060008693506000925060009150600090505b8351811015610abb5760307f010000000000000000000000000000000000000000000000000000000000000002848281518110151561083a57fe5b9060200101517f010000000000000000000000000000000000000000000000000000000000000090047f0100000000000000000000000000000000000000000000000000000000000000027effffffffffffffffffffffffffffffffffffffffffffffffffffffffffffff191610158015610952575060397f01000000000000000000000000000000000000000000000000000000000000000284828151811015156108e257fe5b9060200101517f010000000000000000000000000000000000000000000000000000000000000090047f0100000000000000000000000000000000000000000000000000000000000000027effffffffffffffffffffffffffffffffffffffffffffffffffffffffffffff191611155b15610a0357811561097557600086141561096b57610abb565b8580600190039650505b600a830292506030848281518110151561098b57fe5b9060200101517f010000000000000000000000000000000000000000000000000000000000000090047f0100000000000000000000000000000000000000000000000000000000000000027f010000000000000000000000000000000000000000000000000000000000000090040383019250610aae565b602e7f0100000000000000000000000000000000000000000000000000000000000000028482815181101515610a3557fe5b9060200101517f010000000000000000000000000000000000000000000000000000000000000090047f0100000000000000000000000000000000000000000000000000000000000000027effffffffffffffffffffffffffffffffffffffffffffffffffffffffffffff19161415610aad57600191505b5b80806001019150506107ff565b6000861115610acd5785600a0a830292505b8294505050505092915050565b60008060008060009054906101000a900473ffffffffffffffffffffffffffffffffffffffff1673ffffffffffffffffffffffffffffffffffffffff161480610b4c57506000610b4a6000809054906101000a900473ffffffffffffffffffffffffffffffffffffffff1661107c565b145b15610b5d57610b5b6000611087565b505b6000809054906101000a900473ffffffffffffffffffffffffffffffffffffffff1673ffffffffffffffffffffffffffffffffffffffff166338cc48316040518163ffffffff167c0100000000000000000000000000000000000000000000000000000000028152600401602060405180830381600087803b158015610be257600080fd5b505af1158015610bf6573d6000803e3d6000fd5b505050506040513d6020811015610c0c57600080fd5b810190808051906020019092919050505073ffffffffffffffffffffffffffffffffffffffff16600160009054906101000a900473ffffffffffffffffffffffffffffffffffffffff1673ffffffffffffffffffffffffffffffffffffffff16141515610d74576000809054906101000a900473ffffffffffffffffffffffffffffffffffffffff1673ffffffffffffffffffffffffffffffffffffffff166338cc48316040518163ffffffff167c0100000000000000000000000000000000000000000000000000000000028152600401602060405180830381600087803b158015610cf857600080fd5b505af1158015610d0c573d6000803e3d6000fd5b505050506040513d6020811015610d2257600080fd5b8101908080519060200190929190505050600160006101000a81548173ffffffffffffffffffffffffffffffffffffffff021916908373ffffffffffffffffffffffffffffffffffffffff1602179055505b600160009054906101000a900473ffffffffffffffffffffffffffffffffffffffff1673ffffffffffffffffffffffffffffffffffffffff1663524f3889856040518263ffffffff167c01000000000000000000000000000000000000000000000000000000000281526004018080602001828103825283818151815260200191508051906020019080838360005b83811015610e1e578082015181840152602081019050610e03565b50505050905090810190601f168015610e4b5780820380516001836020036101000a031916815260200191505b5092505050602060405180830381600087803b158015610e6a57600080fd5b505af1158015610e7e573d6000803e3d6000fd5b505050506040513d6020811015610e9457600080fd5b8101908080519060200190929190505050905062030d403a02670de0b6b3a764000001811115610eca5760006001029150611075565b600160009054906101000a900473ffffffffffffffffffffffffffffffffffffffff1673ffffffffffffffffffffffffffffffffffffffff1663adf59f9982600087876040518563ffffffff167c0100000000000000000000000000000000000000000000000000000000028152600401808481526020018060200180602001838103835285818151815260200191508051906020019080838360005b83811015610f82578082015181840152602081019050610f67565b50505050905090810190601f168015610faf5780820380516001836020036101000a031916815260200191505b50838103825284818151815260200191508051906020019080838360005b83811015610fe8578082015181840152602081019050610fcd565b50505050905090810190601f1680156110155780820380516001836020036101000a031916815260200191505b50955050505050506020604051808303818588803b15801561103657600080fd5b505af115801561104a573d6000803e3d6000fd5b50505050506040513d602081101561106157600080fd5b810190808051906020019092919050505091505b5092915050565b6000813b9050919050565b6000611091611098565b9050919050565b6000806110b8731d3b2638a7cc9f2cb3d298a3da7a90b67e5506ed61107c565b111561115957731d3b2638a7cc9f2cb3d298a3da7a90b67e5506ed6000806101000a81548173ffffffffffffffffffffffffffffffffffffffff021916908373ffffffffffffffffffffffffffffffffffffffff1602179055506111506040805190810160405280600b81526020017f6574685f6d61696e6e6574000000000000000000000000000000000000000000815250611527565b60019050611524565b600061117873c03a2615d5efaf5f49f60b7bb6583eaec212fdf161107c565b11156112195773c03a2615d5efaf5f49f60b7bb6583eaec212fdf16000806101000a81548173ffffffffffffffffffffffffffffffffffffffff021916908373ffffffffffffffffffffffffffffffffffffffff1602179055506112106040805190810160405280600c81526020017f6574685f726f707374656e330000000000000000000000000000000000000000815250611527565b60019050611524565b600061123873b7a07bcf2ba2f2703b24c0691b5278999c59ac7e61107c565b11156112d95773b7a07bcf2ba2f2703b24c0691b5278999c59ac7e6000806101000a81548173ffffffffffffffffffffffffffffffffffffffff021916908373ffffffffffffffffffffffffffffffffffffffff1602179055506112d06040805190810160405280600981526020017f6574685f6b6f76616e0000000000000000000000000000000000000000000000815250611527565b60019050611524565b60006112f873146500cfd35b22e4a392fe0adc06de1a1368ed4861107c565b11156113995773146500cfd35b22e4a392fe0adc06de1a1368ed486000806101000a81548173ffffffffffffffffffffffffffffffffffffffff021916908373ffffffffffffffffffffffffffffffffffffffff1602179055506113906040805190810160405280600b81526020017f6574685f72696e6b656279000000000000000000000000000000000000000000815250611527565b60019050611524565b60006113b8736f485c8bf6fc43ea212e93bbf8ce046c7f1cb47561107c565b111561141b57736f485c8bf6fc43ea212e93bbf8ce046c7f1cb4756000806101000a81548173ffffffffffffffffffffffffffffffffffffffff021916908373ffffffffffffffffffffffffffffffffffffffff16021790555060019050611524565b600061143a7320e12a1f859b3feae5fb2a0a32c18f5a65555bbf61107c565b111561149d577320e12a1f859b3feae5fb2a0a32c18f5a65555bbf6000806101000a81548173ffffffffffffffffffffffffffffffffffffffff021916908373ffffffffffffffffffffffffffffffffffffffff16021790555060019050611524565b60006114bc7351efaf4c8b3c9afbd5ab9f4bbc82784ab6ef8faa61107c565b111561151f577351efaf4c8b3c9afbd5ab9f4bbc82784ab6ef8faa6000806101000a81548173ffffffffffffffffffffffffffffffffffffffff021916908373ffffffffffffffffffffffffffffffffffffffff16021790555060019050611524565b600090505b90565b806002908051906020019061153d929190611541565b5050565b828054600181600116156101000203166002900490600052602060002090601f016020900481019282601f1061158257805160ff19168380011785556115b0565b828001600101855582156115b0579182015b828111156115af578251825591602001919060010190611594565b5b5090506115bd91906115c1565b5090565b6115e391905b808211156115df5760008160009055506001016115c7565b5090565b905600a165627a7a723058209ccf197f809d3bbaa1aef09876708ec3b969a963afb1bc1d93d1651b6cf0df4a0029",
  "source": "pragma solidity ^0.4.24;\r\n\r\nimport \"./oraclize/usingOraclize.sol\";\r\n\r\ncontract EthPrice is usingOraclize {\r\n\r\n    uint public ethPriceUsd;\r\n\r\n    event LogNewEthPrice(string price);\r\n    event LogNewOraclizeQuery(string description);\r\n\r\n    function EthPrice() {\r\n        update(); // first check at contract creation\r\n    }\r\n\r\n    function __callback(bytes32 myid, string result) {\r\n        require(msg.sender == oraclize_cbAddress(), 'Caller is not Oraclize!');\r\n        emit LogNewEthPrice(result);\r\n        ethPriceUsd = parseInt(result, 2);\r\n        // ...Do something with the USD Diesel price...\r\n    }\r\n\r\n    function update() payable {\r\n        emit LogNewOraclizeQuery(\"Oraclize query was sent, standing by for the answer..\");\r\n        oraclize_query(\"URL\", \"json(https://api.coinbase.com/v2/prices/ETH-USD/spot).data.amount\");\r\n    }\r\n\r\n}",
  "sourcePath": "C:\\Users\\huiskamer\\Desktop\\my-awesome-oraclize-truffle-box\\contracts\\EthPrice.sol",
  "compiler": {
    "name": "solc",
    "version": "0.4.24+commit.e67f0147.Emscripten.clang"
  },
  "schemaVersion": "2.0.1",
  "updatedAt": "2019-01-04T11:20:35.340Z"
}