{
  "contractName": "EthPrice",
  "abi": [
    {
      "constant": true,
      "inputs": [],
      "name": "ethPriceUsd",
      "outputs": [
        {
          "name": "",
          "type": "string"
        }
      ],
      "payable": false,
      "stateMutability": "view",
      "type": "function"
    },
    {
      "inputs": [],
      "payable": false,
      "stateMutability": "nonpayable",
      "type": "constructor"
    },
    {
      "anonymous": false,
      "inputs": [
        {
          "indexed": false,
          "name": "description",
          "type": "string"
        }
      ],
      "name": "LogInfo",
      "type": "event"
    },
    {
      "anonymous": false,
      "inputs": [
        {
          "indexed": false,
          "name": "price",
          "type": "string"
        }
      ],
      "name": "LogNewEthPrice",
      "type": "event"
    },
    {
      "anonymous": false,
      "inputs": [
        {
          "indexed": false,
          "name": "description",
          "type": "string"
        }
      ],
      "name": "LogNewOraclizeQuery",
      "type": "event"
    },
    {
      "constant": false,
      "inputs": [
        {
          "name": "myid",
          "type": "bytes32"
        },
        {
          "name": "result",
          "type": "string"
        }
      ],
      "name": "__callback",
      "outputs": [],
      "payable": false,
      "stateMutability": "nonpayable",
      "type": "function"
    },
    {
      "constant": false,
      "inputs": [
        {
          "name": "myid",
          "type": "bytes32"
        },
        {
          "name": "result",
          "type": "string"
        },
        {
          "name": "proof",
          "type": "bytes"
        }
      ],
      "name": "__callback",
      "outputs": [],
      "payable": false,
      "stateMutability": "nonpayable",
      "type": "function"
    },
    {
      "constant": false,
      "inputs": [],
      "name": "update",
      "outputs": [],
      "payable": true,
      "stateMutability": "payable",
      "type": "function"
    }
  ],
  "bytecode": "0x60806040523480156200001157600080fd5b506200002b62000031640100000000026401000000009004565b6200137a565b3073ffffffffffffffffffffffffffffffffffffffff1631620000986040805190810160405280600381526020017f55524c00000000000000000000000000000000000000000000000000000000008152506200034b640100000000026401000000009004565b111562000159577ffee95ecae0c8f7f0743ec0ad254c78ab75e5ecca9f1ddcd9f11f9a98124b96bc60405180806020018281038252604b8152602001807f4f7261636c697a6520717565727920776173204e4f542073656e742c20706c6581526020017f6173652061646420736f6d652045544820746f20636f76657220666f7220746881526020017f652071756572792066656500000000000000000000000000000000000000000081525060600191505060405180910390a162000349565b7ffee95ecae0c8f7f0743ec0ad254c78ab75e5ecca9f1ddcd9f11f9a98124b96bc6040518080602001828103825260358152602001807f4f7261636c697a65207175657279207761732073656e742c207374616e64696e81526020017f6720627920666f722074686520616e737765722e2e000000000000000000000081525060400191505060405180910390a17f621c2856e3b87f81235f8ac8a22bbb40a0142961960710d00b2b6c380902b57e6040518080602001828103825260358152602001807f4f7261636c697a65207175657279207761732073656e742c207374616e64696e81526020017f6720627920666f722074686520616e737765722e2e000000000000000000000081525060400191505060405180910390a1620003476040805190810160405280600381526020017f55524c0000000000000000000000000000000000000000000000000000000000815250608060405190810160405280604181526020017f6a736f6e2868747470733a2f2f6170692e636f696e626173652e636f6d2f763281526020017f2f7072696365732f4554482d5553442f73706f74292e646174612e616d6f756e81526020017f74000000000000000000000000000000000000000000000000000000000000008152506200074c640100000000026401000000009004565b505b565b6000806000809054906101000a900473ffffffffffffffffffffffffffffffffffffffff1673ffffffffffffffffffffffffffffffffffffffff161480620003cd57506000620003cb6000809054906101000a900473ffffffffffffffffffffffffffffffffffffffff1662000d2a640100000000026401000000009004565b145b15620003f057620003ee600062000d35640100000000026401000000009004565b505b6000809054906101000a900473ffffffffffffffffffffffffffffffffffffffff1673ffffffffffffffffffffffffffffffffffffffff166338cc48316040518163ffffffff167c0100000000000000000000000000000000000000000000000000000000028152600401602060405180830381600087803b1580156200047657600080fd5b505af11580156200048b573d6000803e3d6000fd5b505050506040513d6020811015620004a257600080fd5b810190808051906020019092919050505073ffffffffffffffffffffffffffffffffffffffff16600160009054906101000a900473ffffffffffffffffffffffffffffffffffffffff1673ffffffffffffffffffffffffffffffffffffffff161415156200060e576000809054906101000a900473ffffffffffffffffffffffffffffffffffffffff1673ffffffffffffffffffffffffffffffffffffffff166338cc48316040518163ffffffff167c0100000000000000000000000000000000000000000000000000000000028152600401602060405180830381600087803b1580156200059057600080fd5b505af1158015620005a5573d6000803e3d6000fd5b505050506040513d6020811015620005bc57600080fd5b8101908080519060200190929190505050600160006101000a81548173ffffffffffffffffffffffffffffffffffffffff021916908373ffffffffffffffffffffffffffffffffffffffff1602179055505b600160009054906101000a900473ffffffffffffffffffffffffffffffffffffffff1673ffffffffffffffffffffffffffffffffffffffff1663524f3889836040518263ffffffff167c01000000000000000000000000000000000000000000000000000000000281526004018080602001828103825283818151815260200191508051906020019080838360005b83811015620006ba5780820151818401526020810190506200069d565b50505050905090810190601f168015620006e85780820380516001836020036101000a031916815260200191505b5092505050602060405180830381600087803b1580156200070857600080fd5b505af11580156200071d573d6000803e3d6000fd5b505050506040513d60208110156200073457600080fd5b81019080805190602001909291905050509050919050565b60008060008060009054906101000a900473ffffffffffffffffffffffffffffffffffffffff1673ffffffffffffffffffffffffffffffffffffffff161480620007d057506000620007ce6000809054906101000a900473ffffffffffffffffffffffffffffffffffffffff1662000d2a640100000000026401000000009004565b145b15620007f357620007f1600062000d35640100000000026401000000009004565b505b6000809054906101000a900473ffffffffffffffffffffffffffffffffffffffff1673ffffffffffffffffffffffffffffffffffffffff166338cc48316040518163ffffffff167c0100000000000000000000000000000000000000000000000000000000028152600401602060405180830381600087803b1580156200087957600080fd5b505af11580156200088e573d6000803e3d6000fd5b505050506040513d6020811015620008a557600080fd5b810190808051906020019092919050505073ffffffffffffffffffffffffffffffffffffffff16600160009054906101000a900473ffffffffffffffffffffffffffffffffffffffff1673ffffffffffffffffffffffffffffffffffffffff1614151562000a11576000809054906101000a900473ffffffffffffffffffffffffffffffffffffffff1673ffffffffffffffffffffffffffffffffffffffff166338cc48316040518163ffffffff167c0100000000000000000000000000000000000000000000000000000000028152600401602060405180830381600087803b1580156200099357600080fd5b505af1158015620009a8573d6000803e3d6000fd5b505050506040513d6020811015620009bf57600080fd5b8101908080519060200190929190505050600160006101000a81548173ffffffffffffffffffffffffffffffffffffffff021916908373ffffffffffffffffffffffffffffffffffffffff1602179055505b600160009054906101000a900473ffffffffffffffffffffffffffffffffffffffff1673ffffffffffffffffffffffffffffffffffffffff1663524f3889856040518263ffffffff167c01000000000000000000000000000000000000000000000000000000000281526004018080602001828103825283818151815260200191508051906020019080838360005b8381101562000abd57808201518184015260208101905062000aa0565b50505050905090810190601f16801562000aeb5780820380516001836020036101000a031916815260200191505b5092505050602060405180830381600087803b15801562000b0b57600080fd5b505af115801562000b20573d6000803e3d6000fd5b505050506040513d602081101562000b3757600080fd5b8101908080519060200190929190505050905062030d403a02670de0b6b3a76400000181111562000b6f576000600102915062000d23565b600160009054906101000a900473ffffffffffffffffffffffffffffffffffffffff1673ffffffffffffffffffffffffffffffffffffffff1663adf59f9982600087876040518563ffffffff167c0100000000000000000000000000000000000000000000000000000000028152600401808481526020018060200180602001838103835285818151815260200191508051906020019080838360005b8381101562000c2957808201518184015260208101905062000c0c565b50505050905090810190601f16801562000c575780820380516001836020036101000a031916815260200191505b50838103825284818151815260200191508051906020019080838360005b8381101562000c9257808201518184015260208101905062000c75565b50505050905090810190601f16801562000cc05780820380516001836020036101000a031916815260200191505b50955050505050506020604051808303818588803b15801562000ce257600080fd5b505af115801562000cf7573d6000803e3d6000fd5b50505050506040513d602081101562000d0f57600080fd5b810190808051906020019092919050505091505b5092915050565b6000813b9050919050565b600062000d5062000d57640100000000026401000000009004565b9050919050565b60008062000d88731d3b2638a7cc9f2cb3d298a3da7a90b67e5506ed62000d2a640100000000026401000000009004565b111562000e3c57731d3b2638a7cc9f2cb3d298a3da7a90b67e5506ed6000806101000a81548173ffffffffffffffffffffffffffffffffffffffff021916908373ffffffffffffffffffffffffffffffffffffffff16021790555062000e326040805190810160405280600b81526020017f6574685f6d61696e6e6574000000000000000000000000000000000000000000815250620012af640100000000026401000000009004565b60019050620012ac565b600062000e6c73c03a2615d5efaf5f49f60b7bb6583eaec212fdf162000d2a640100000000026401000000009004565b111562000f205773c03a2615d5efaf5f49f60b7bb6583eaec212fdf16000806101000a81548173ffffffffffffffffffffffffffffffffffffffff021916908373ffffffffffffffffffffffffffffffffffffffff16021790555062000f166040805190810160405280600c81526020017f6574685f726f707374656e330000000000000000000000000000000000000000815250620012af640100000000026401000000009004565b60019050620012ac565b600062000f5073b7a07bcf2ba2f2703b24c0691b5278999c59ac7e62000d2a640100000000026401000000009004565b1115620010045773b7a07bcf2ba2f2703b24c0691b5278999c59ac7e6000806101000a81548173ffffffffffffffffffffffffffffffffffffffff021916908373ffffffffffffffffffffffffffffffffffffffff16021790555062000ffa6040805190810160405280600981526020017f6574685f6b6f76616e0000000000000000000000000000000000000000000000815250620012af640100000000026401000000009004565b60019050620012ac565b60006200103473146500cfd35b22e4a392fe0adc06de1a1368ed4862000d2a640100000000026401000000009004565b1115620010e85773146500cfd35b22e4a392fe0adc06de1a1368ed486000806101000a81548173ffffffffffffffffffffffffffffffffffffffff021916908373ffffffffffffffffffffffffffffffffffffffff160217905550620010de6040805190810160405280600b81526020017f6574685f72696e6b656279000000000000000000000000000000000000000000815250620012af640100000000026401000000009004565b60019050620012ac565b600062001118736f485c8bf6fc43ea212e93bbf8ce046c7f1cb47562000d2a640100000000026401000000009004565b11156200117d57736f485c8bf6fc43ea212e93bbf8ce046c7f1cb4756000806101000a81548173ffffffffffffffffffffffffffffffffffffffff021916908373ffffffffffffffffffffffffffffffffffffffff16021790555060019050620012ac565b6000620011ad7320e12a1f859b3feae5fb2a0a32c18f5a65555bbf62000d2a640100000000026401000000009004565b111562001212577320e12a1f859b3feae5fb2a0a32c18f5a65555bbf6000806101000a81548173ffffffffffffffffffffffffffffffffffffffff021916908373ffffffffffffffffffffffffffffffffffffffff16021790555060019050620012ac565b6000620012427351efaf4c8b3c9afbd5ab9f4bbc82784ab6ef8faa62000d2a640100000000026401000000009004565b1115620012a7577351efaf4c8b3c9afbd5ab9f4bbc82784ab6ef8faa6000806101000a81548173ffffffffffffffffffffffffffffffffffffffff021916908373ffffffffffffffffffffffffffffffffffffffff16021790555060019050620012ac565b600090505b90565b8060029080519060200190620012c7929190620012cb565b5050565b828054600181600116156101000203166002900490600052602060002090601f016020900481019282601f106200130e57805160ff19168380011785556200133f565b828001600101855582156200133f579182015b828111156200133e57825182559160200191906001019062001321565b5b5090506200134e919062001352565b5090565b6200137791905b808211156200137357600081600090555060010162001359565b5090565b90565b611995806200138a6000396000f300608060405260043610610062576000357c0100000000000000000000000000000000000000000000000000000000900463ffffffff16806316061dbf1461006757806327dc297e146100f757806338bbfa501461016e578063a2e620451461022b575b600080fd5b34801561007357600080fd5b5061007c610235565b6040518080602001828103825283818151815260200191508051906020019080838360005b838110156100bc5780820151818401526020810190506100a1565b50505050905090810190601f1680156100e95780820380516001836020036101000a031916815260200191505b509250505060405180910390f35b34801561010357600080fd5b5061016c6004803603810190808035600019169060200190929190803590602001908201803590602001908080601f01602080910402602001604051908101604052809392919081815260200183838082843782019150505050505091929192905050506102d3565b005b34801561017a57600080fd5b506102296004803603810190808035600019169060200190929190803590602001908201803590602001908080601f0160208091040260200160405190810160405280939291908181526020018383808284378201915050505050509192919290803590602001908201803590602001908080601f0160208091040260200160405190810160405280939291908181526020018383808284378201915050505050509192919290505050610434565b005b610233610439565b005b60058054600181600116156101000203166002900480601f0160208091040260200160405190810160405280929190818152602001828054600181600116156101000203166002900480156102cb5780601f106102a0576101008083540402835291602001916102cb565b820191906000526020600020905b8154815290600101906020018083116102ae57829003601f168201915b505050505081565b6102db61072f565b73ffffffffffffffffffffffffffffffffffffffff163373ffffffffffffffffffffffffffffffffffffffff1614151561037d576040517f08c379a00000000000000000000000000000000000000000000000000000000081526004018080602001828103825260178152602001807f43616c6c6572206973206e6f74204f7261636c697a652100000000000000000081525060200191505060405180910390fd5b7f13f6c146341f01b18567c39d285d72a1fed28b0731c5dfa67c925b22abfa858b816040518080602001828103825283818151815260200191508051906020019080838360005b838110156103df5780820151818401526020810190506103c4565b50505050905090810190601f16801561040c5780820380516001836020036101000a031916815260200191505b509250505060405180910390a1806005908051906020019061042f9291906118c4565b505050565b505050565b3073ffffffffffffffffffffffffffffffffffffffff163161048f6040805190810160405280600381526020017f55524c0000000000000000000000000000000000000000000000000000000000815250610a8d565b111561054e577ffee95ecae0c8f7f0743ec0ad254c78ab75e5ecca9f1ddcd9f11f9a98124b96bc60405180806020018281038252604b8152602001807f4f7261636c697a6520717565727920776173204e4f542073656e742c20706c6581526020017f6173652061646420736f6d652045544820746f20636f76657220666f7220746881526020017f652071756572792066656500000000000000000000000000000000000000000081525060600191505060405180910390a161072d565b7ffee95ecae0c8f7f0743ec0ad254c78ab75e5ecca9f1ddcd9f11f9a98124b96bc6040518080602001828103825260358152602001807f4f7261636c697a65207175657279207761732073656e742c207374616e64696e81526020017f6720627920666f722074686520616e737765722e2e000000000000000000000081525060400191505060405180910390a17f621c2856e3b87f81235f8ac8a22bbb40a0142961960710d00b2b6c380902b57e6040518080602001828103825260358152602001807f4f7261636c697a65207175657279207761732073656e742c207374616e64696e81526020017f6720627920666f722074686520616e737765722e2e000000000000000000000081525060400191505060405180910390a161072b6040805190810160405280600381526020017f55524c0000000000000000000000000000000000000000000000000000000000815250608060405190810160405280604181526020017f6a736f6e2868747470733a2f2f6170692e636f696e626173652e636f6d2f763281526020017f2f7072696365732f4554482d5553442f73706f74292e646174612e616d6f756e81526020017f7400000000000000000000000000000000000000000000000000000000000000815250610e5d565b505b565b6000806000809054906101000a900473ffffffffffffffffffffffffffffffffffffffff1673ffffffffffffffffffffffffffffffffffffffff16148061079f5750600061079d6000809054906101000a900473ffffffffffffffffffffffffffffffffffffffff166113ff565b145b156107b0576107ae600061140a565b505b6000809054906101000a900473ffffffffffffffffffffffffffffffffffffffff1673ffffffffffffffffffffffffffffffffffffffff166338cc48316040518163ffffffff167c0100000000000000000000000000000000000000000000000000000000028152600401602060405180830381600087803b15801561083557600080fd5b505af1158015610849573d6000803e3d6000fd5b505050506040513d602081101561085f57600080fd5b810190808051906020019092919050505073ffffffffffffffffffffffffffffffffffffffff16600160009054906101000a900473ffffffffffffffffffffffffffffffffffffffff1673ffffffffffffffffffffffffffffffffffffffff161415156109c7576000809054906101000a900473ffffffffffffffffffffffffffffffffffffffff1673ffffffffffffffffffffffffffffffffffffffff166338cc48316040518163ffffffff167c0100000000000000000000000000000000000000000000000000000000028152600401602060405180830381600087803b15801561094b57600080fd5b505af115801561095f573d6000803e3d6000fd5b505050506040513d602081101561097557600080fd5b8101908080519060200190929190505050600160006101000a81548173ffffffffffffffffffffffffffffffffffffffff021916908373ffffffffffffffffffffffffffffffffffffffff1602179055505b600160009054906101000a900473ffffffffffffffffffffffffffffffffffffffff1673ffffffffffffffffffffffffffffffffffffffff1663c281d19e6040518163ffffffff167c0100000000000000000000000000000000000000000000000000000000028152600401602060405180830381600087803b158015610a4d57600080fd5b505af1158015610a61573d6000803e3d6000fd5b505050506040513d6020811015610a7757600080fd5b8101908080519060200190929190505050905090565b6000806000809054906101000a900473ffffffffffffffffffffffffffffffffffffffff1673ffffffffffffffffffffffffffffffffffffffff161480610afd57506000610afb6000809054906101000a900473ffffffffffffffffffffffffffffffffffffffff166113ff565b145b15610b0e57610b0c600061140a565b505b6000809054906101000a900473ffffffffffffffffffffffffffffffffffffffff1673ffffffffffffffffffffffffffffffffffffffff166338cc48316040518163ffffffff167c0100000000000000000000000000000000000000000000000000000000028152600401602060405180830381600087803b158015610b9357600080fd5b505af1158015610ba7573d6000803e3d6000fd5b505050506040513d6020811015610bbd57600080fd5b810190808051906020019092919050505073ffffffffffffffffffffffffffffffffffffffff16600160009054906101000a900473ffffffffffffffffffffffffffffffffffffffff1673ffffffffffffffffffffffffffffffffffffffff16141515610d25576000809054906101000a900473ffffffffffffffffffffffffffffffffffffffff1673ffffffffffffffffffffffffffffffffffffffff166338cc48316040518163ffffffff167c0100000000000000000000000000000000000000000000000000000000028152600401602060405180830381600087803b158015610ca957600080fd5b505af1158015610cbd573d6000803e3d6000fd5b505050506040513d6020811015610cd357600080fd5b8101908080519060200190929190505050600160006101000a81548173ffffffffffffffffffffffffffffffffffffffff021916908373ffffffffffffffffffffffffffffffffffffffff1602179055505b600160009054906101000a900473ffffffffffffffffffffffffffffffffffffffff1673ffffffffffffffffffffffffffffffffffffffff1663524f3889836040518263ffffffff167c01000000000000000000000000000000000000000000000000000000000281526004018080602001828103825283818151815260200191508051906020019080838360005b83811015610dcf578082015181840152602081019050610db4565b50505050905090810190601f168015610dfc5780820380516001836020036101000a031916815260200191505b5092505050602060405180830381600087803b158015610e1b57600080fd5b505af1158015610e2f573d6000803e3d6000fd5b505050506040513d6020811015610e4557600080fd5b81019080805190602001909291905050509050919050565b60008060008060009054906101000a900473ffffffffffffffffffffffffffffffffffffffff1673ffffffffffffffffffffffffffffffffffffffff161480610ecf57506000610ecd6000809054906101000a900473ffffffffffffffffffffffffffffffffffffffff166113ff565b145b15610ee057610ede600061140a565b505b6000809054906101000a900473ffffffffffffffffffffffffffffffffffffffff1673ffffffffffffffffffffffffffffffffffffffff166338cc48316040518163ffffffff167c0100000000000000000000000000000000000000000000000000000000028152600401602060405180830381600087803b158015610f6557600080fd5b505af1158015610f79573d6000803e3d6000fd5b505050506040513d6020811015610f8f57600080fd5b810190808051906020019092919050505073ffffffffffffffffffffffffffffffffffffffff16600160009054906101000a900473ffffffffffffffffffffffffffffffffffffffff1673ffffffffffffffffffffffffffffffffffffffff161415156110f7576000809054906101000a900473ffffffffffffffffffffffffffffffffffffffff1673ffffffffffffffffffffffffffffffffffffffff166338cc48316040518163ffffffff167c0100000000000000000000000000000000000000000000000000000000028152600401602060405180830381600087803b15801561107b57600080fd5b505af115801561108f573d6000803e3d6000fd5b505050506040513d60208110156110a557600080fd5b8101908080519060200190929190505050600160006101000a81548173ffffffffffffffffffffffffffffffffffffffff021916908373ffffffffffffffffffffffffffffffffffffffff1602179055505b600160009054906101000a900473ffffffffffffffffffffffffffffffffffffffff1673ffffffffffffffffffffffffffffffffffffffff1663524f3889856040518263ffffffff167c01000000000000000000000000000000000000000000000000000000000281526004018080602001828103825283818151815260200191508051906020019080838360005b838110156111a1578082015181840152602081019050611186565b50505050905090810190601f1680156111ce5780820380516001836020036101000a031916815260200191505b5092505050602060405180830381600087803b1580156111ed57600080fd5b505af1158015611201573d6000803e3d6000fd5b505050506040513d602081101561121757600080fd5b8101908080519060200190929190505050905062030d403a02670de0b6b3a76400000181111561124d57600060010291506113f8565b600160009054906101000a900473ffffffffffffffffffffffffffffffffffffffff1673ffffffffffffffffffffffffffffffffffffffff1663adf59f9982600087876040518563ffffffff167c0100000000000000000000000000000000000000000000000000000000028152600401808481526020018060200180602001838103835285818151815260200191508051906020019080838360005b838110156113055780820151818401526020810190506112ea565b50505050905090810190601f1680156113325780820380516001836020036101000a031916815260200191505b50838103825284818151815260200191508051906020019080838360005b8381101561136b578082015181840152602081019050611350565b50505050905090810190601f1680156113985780820380516001836020036101000a031916815260200191505b50955050505050506020604051808303818588803b1580156113b957600080fd5b505af11580156113cd573d6000803e3d6000fd5b50505050506040513d60208110156113e457600080fd5b810190808051906020019092919050505091505b5092915050565b6000813b9050919050565b600061141461141b565b9050919050565b60008061143b731d3b2638a7cc9f2cb3d298a3da7a90b67e5506ed6113ff565b11156114dc57731d3b2638a7cc9f2cb3d298a3da7a90b67e5506ed6000806101000a81548173ffffffffffffffffffffffffffffffffffffffff021916908373ffffffffffffffffffffffffffffffffffffffff1602179055506114d36040805190810160405280600b81526020017f6574685f6d61696e6e65740000000000000000000000000000000000000000008152506118aa565b600190506118a7565b60006114fb73c03a2615d5efaf5f49f60b7bb6583eaec212fdf16113ff565b111561159c5773c03a2615d5efaf5f49f60b7bb6583eaec212fdf16000806101000a81548173ffffffffffffffffffffffffffffffffffffffff021916908373ffffffffffffffffffffffffffffffffffffffff1602179055506115936040805190810160405280600c81526020017f6574685f726f707374656e3300000000000000000000000000000000000000008152506118aa565b600190506118a7565b60006115bb73b7a07bcf2ba2f2703b24c0691b5278999c59ac7e6113ff565b111561165c5773b7a07bcf2ba2f2703b24c0691b5278999c59ac7e6000806101000a81548173ffffffffffffffffffffffffffffffffffffffff021916908373ffffffffffffffffffffffffffffffffffffffff1602179055506116536040805190810160405280600981526020017f6574685f6b6f76616e00000000000000000000000000000000000000000000008152506118aa565b600190506118a7565b600061167b73146500cfd35b22e4a392fe0adc06de1a1368ed486113ff565b111561171c5773146500cfd35b22e4a392fe0adc06de1a1368ed486000806101000a81548173ffffffffffffffffffffffffffffffffffffffff021916908373ffffffffffffffffffffffffffffffffffffffff1602179055506117136040805190810160405280600b81526020017f6574685f72696e6b6562790000000000000000000000000000000000000000008152506118aa565b600190506118a7565b600061173b736f485c8bf6fc43ea212e93bbf8ce046c7f1cb4756113ff565b111561179e57736f485c8bf6fc43ea212e93bbf8ce046c7f1cb4756000806101000a81548173ffffffffffffffffffffffffffffffffffffffff021916908373ffffffffffffffffffffffffffffffffffffffff160217905550600190506118a7565b60006117bd7320e12a1f859b3feae5fb2a0a32c18f5a65555bbf6113ff565b1115611820577320e12a1f859b3feae5fb2a0a32c18f5a65555bbf6000806101000a81548173ffffffffffffffffffffffffffffffffffffffff021916908373ffffffffffffffffffffffffffffffffffffffff160217905550600190506118a7565b600061183f7351efaf4c8b3c9afbd5ab9f4bbc82784ab6ef8faa6113ff565b11156118a2577351efaf4c8b3c9afbd5ab9f4bbc82784ab6ef8faa6000806101000a81548173ffffffffffffffffffffffffffffffffffffffff021916908373ffffffffffffffffffffffffffffffffffffffff160217905550600190506118a7565b600090505b90565b80600290805190602001906118c09291906118c4565b5050565b828054600181600116156101000203166002900490600052602060002090601f016020900481019282601f1061190557805160ff1916838001178555611933565b82800160010185558215611933579182015b82811115611932578251825591602001919060010190611917565b5b5090506119409190611944565b5090565b61196691905b8082111561196257600081600090555060010161194a565b5090565b905600a165627a7a7230582048bcc24e81c9b095fc54177443e32a2693504ecbd8a72c3540aa4101e60e62b30029",
  "source": "pragma solidity ^0.4.24;\n\nimport \"./oraclize/usingOraclize.sol\";\n\ncontract EthPrice is usingOraclize {\n\n    string public ethPriceUsd;\n\n    event LogInfo(string description);\n    event LogNewEthPrice(string price);\n    event LogNewOraclizeQuery(string description);\n\n    function EthPrice() {\n        update(); \n    }\n\n    function __callback(bytes32 myid, string result) {\n        require(msg.sender == oraclize_cbAddress(), 'Caller is not Oraclize!');\n        emit LogNewEthPrice(result);\n        ethPriceUsd = result;\n    }\n\n    function update() payable public {\n        if(oraclize_getPrice(\"URL\") > address(this).balance){\n            emit LogInfo(\"Oraclize query was NOT sent, please add some ETH to cover for the query fee\");\n        } else {\n           emit LogInfo(\"Oraclize query was sent, standing by for the answer..\"); \n           emit LogNewOraclizeQuery(\"Oraclize query was sent, standing by for the answer..\");\n           oraclize_query(\"URL\", \"json(https://api.coinbase.com/v2/prices/ETH-USD/spot).data.amount\");\n        }\n\n    }\n\n}",
  "sourcePath": "C:\\Users\\huiskamer\\Desktop\\oricalize-starter\\contracts\\EthPrice.sol",
  "compiler": {
    "name": "solc",
    "version": "0.4.24+commit.e67f0147.Emscripten.clang"
  },
  "schemaVersion": "2.0.1",
  "updatedAt": "2019-01-05T08:08:11.165Z"
}